:020000040000FA
:1000000000008A110A12362FF200030E8301F1005C
:100010000A088A01F000040883160313D90014307B
:1000200083160313D6070318D70A5608143A031D7C
:100030002B285708003A031D2B288A110A123E204C
:100040008A110A128A110A1264258A110A12831669
:100050000313D601D7018A150A1200208A110A1249
:1000600083160313590883120313840070088A004F
:100070008301710E8300F20E720E090083120313C6
:10008000C001C101C201C301C401831203134308AB
:100090005D3EC5000030C60044080318440FC60783
:1000A00001304507C700C801C80D4608C80702301F
:1000B000C5070318C60A4508831203138400831377
:1000C0008312031346188317831203130008831245
:1000D0000313C90047088312031384008313831298
:1000E0000313481883174908831203138000043050
:1000F0008312031340020318F22800308312031303
:100100008A008B30831203134007031C8A28831252
:1001100003138A0A82008F28A828C128DA28003011
:10012000FF0001308A110A1245248A110A12831233
:100130000313C7004508831203138400831383123B
:100140000313461883174708831203138000F2280D
:100150000130FF0001308A110A1245248A110A1267
:1001600083120313C700450883120313840083130B
:100170008312031346188317470883120313800062
:10018000F2280230FF0001308A110A1245248A1138
:100190000A1283120313C700450883120313840055
:1001A000831383120313461883174708831203131C
:1001B0008000F2280330FF0001308A110A12452422
:1001C0008A110A1283120313C7004508831203130E
:1001D000840083138312031346188317470883127E
:1001E000031380008312031341085D3EC5000030F5
:1001F000C60042080318420FC607450883120313BE
:100200008400831383120313461883178312031386
:10021000000883120313C70041085D3EC50000308B
:10022000C60042080318420FC60701304507C80040
:10023000C901C90D4608C907480883120313840081
:1002400083138312031349188317831203130008BF
:1002500083120313CA0002304507C800C901C90D43
:100260004608C907480883120313840083138312C6
:10027000031349188317831203130008831203130F
:10028000CB00043047020318AB290130831203135B
:100290008A005330831203134707031C5229831229
:1002A00003138A0A820057296D298029982983120D
:1002B00003134A08031DAB294B08031DAB2945084E
:1002C00083120313840083138312031346188317C6
:1002D0000130831203138000AB29831203134B08F0
:1002E000031DAB2945088312031384008313831273
:1002F0000313461883170230831203138000AB29BF
:10030000831203134A08013A031DAB294B08013A33
:10031000031DAB2945088312031384008313831242
:100320000313461883170330831203138000AB298D
:10033000831203134B08013A031DAB2945088312AE
:1003400003138400831383120313461883170030AA
:10035000831203138000033083120313C1070318B1
:10036000C20A0330C3070318C40AC00A043040029B
:10037000031C4528080083120313A8007F08A90066
:100380007E08AA00053028020318FF2A01308312D4
:1003900003138A00D430831203132807031CD329C4
:1003A000831203138A0A8200D929142A4F2A8A2A1F
:1003B000C52A831203130130AB002908A800A81B2B
:1003C000EB29003C0319F42983120313AB0D013E02
:1003D000031CE429F429031083120313AB1B031439
:1003E000AB0C013E031CEB29831203132B09A8005D
:1003F00083120313050883120313AB00A8052A0810
:10040000AB002908003C03190B2A83120313AB0D20
:10041000013E031C052A831203132B08AC00280499
:10042000831203138500FF2A013083120313AB00EC
:100430002908A800A81B262A003C03192F2A83128A
:100440000313AB0D013E031C1F2A2F2A0310831236
:100450000313AB1B0314AB0C013E031C262A8312AF
:1004600003132B09A8008312031306088312031336
:10047000AB00A8052A08AB002908003C0319462A4E
:1004800083120313AB0D013E031C402A8312031396
:100490002B08AC002804831203138600FF2A0130C6
:1004A00083120313AB002908A800A81B612A003C93
:1004B00003196A2A83120313AB0D013E031C5A2A47
:1004C0006A2A031083120313AB1B0314AB0C013E07
:1004D000031C612A831203132B09A8008312031340
:1004E000070883120313AB00A8052A08AB002908EC
:1004F000003C0319812A83120313AB0D013E031C38
:100500007B2A831203132B08AC00280483120313E5
:100510008700FF2A013083120313AB002908A800CB
:10052000A81B9C2A003C0319A52A83120313AB0DB8
:10053000013E031C952AA52A031083120313AB1B4B
:100540000314AB0C013E031C9C2A831203132B09DA
:10055000A80083120313080883120313AB00A80535
:100560002A08AB002908003C0319BC2A8312031394
:10057000AB0D013E031CB62A831203132B08AC00FB
:100580002804831203138800FF2A01308312031307
:10059000AB002908A800A81BD72A003C0319E02AB1
:1005A00083120313AB0D013E031CD02AE02A031073
:1005B00083120313AB1B0314AB0C013E031CD72A9D
:1005C000831203132B09A800831203130908831253
:1005D0000313AB00A8052A08AB002908003C031947
:1005E000F72A83120313AB0D013E031CF12A831279
:1005F00003132B08A90028048312031389000800A1
:1006000083120313A0007F08A1007E08A20005301A
:1006100020020318442C0330831203138A0019307C
:10062000831203132007031C182B831203138A0A57
:1006300082001E2B592B942BCF2B0A2C83120313D1
:100640000130A3002108A000A01B302B003C03199F
:10065000392B83120313A30D013E031C292B392BC5
:10066000031083120313A31B0314A30C013E031CEA
:10067000302B831203132309A000831603130508EC
:1006800083120313A300A0052208A3002108003C45
:100690000319502B83120313A30D013E031C4A2B95
:1006A000831203132308A400200483160313850078
:1006B000442C013083120313A3002108A000A01BC7
:1006C0006B2B003C0319742B83120313A30D013E03
:1006D000031C642B742B031083120313A31B03143A
:1006E000A30C013E031C6B2B831203132309A000F0
:1006F00083160313060883120313A300A005220820
:10070000A3002108003C03198B2B83120313A30DB4
:10071000013E031C852B831203132308A40020042D
:10072000831603138600442C013083120313A300A5
:100730002108A000A01BA62B003C0319AF2B83129D
:100740000313A30D013E031C9F2BAF2B0310831239
:100750000313A31B0314A30C013E031CA62B83123B
:1007600003132309A000831603130708831203133E
:10077000A300A0052208A3002108003C0319C62BF2
:1007800083120313A30D013E031CC02B831203131A
:100790002308A4002004831603138700442C01308F
:1007A00083120313A3002108A000A01BE12B003C2F
:1007B0000319EA2B83120313A30D013E031CDA2B4A
:1007C000EA2B031083120313A31B0314A30C013E93
:1007D000031CE12B831203132309A00083160313C8
:1007E000080883120313A300A0052208A300210810
:1007F000003C0319012C83120313A30D013E031CBB
:10080000FB2B831203132308A40020048316031375
:100810008800442C013083120313A3002108A00098
:10082000A01B1C2C003C0319252C83120313A30DC1
:10083000013E031C152C252C031083120313A31B4C
:100840000314A30C013E031C1C2C83120313230965
:10085000A00083160313090883120313A300A00545
:100860002208A3002108003C03193C2C8312031327
:10087000A30D013E031C362C831203132308A10091
:100880002004831603138900080083120313B400A5
:100890007F08B500B601053034020318602D04301E
:1008A000831203138A005D30831203133407031C81
:1008B0005C2C831203138A0A8200622C952CC82CAC
:1008C000FB2C2E2D003083120313B7000130B4002F
:1008D0003508003C0319732C83120313B40DB70DB4
:1008E000013E031C6C2C83120313050883120313AF
:1008F000B800B9013808B4050030B7053708B900A9
:100900003408B8003508003C0319902C03108312FA
:100910000313B91B0314B90CB80C013E031C862C3D
:10092000831203133808B600602D003083120313BE
:10093000B7000130B4003508003C0319A62C83121F
:100940000313B40DB70D013E031C9F2C8312031338
:10095000060883120313B800B9013808B405003043
:10096000B7053708B9003408B8003508003C03194A
:10097000C32C031083120313B91B0314B90CB80C56
:10098000013E031CB92C831203133808B600602DF6
:10099000003083120313B7000130B4003508003C67
:1009A0000319D92C83120313B40DB70D013E031C98
:1009B000D22C83120313070883120313B800B90162
:1009C0003808B4050030B7053708B9003408B80056
:1009D0003508003C0319F62C031083120313B91BCE
:1009E0000314B90CB80C013E031CEC2C8312031346
:1009F0003808B600602D003083120313B7000130B1
:100A0000B4003508003C03190C2D83120313B40DF8
:100A1000B70D013E031C052D831203130808831232
:100A20000313B800B9013808B4050030B70537081A
:100A3000B9003408B8003508003C0319292D03100B
:100A400083120313B91B0314B90CB80C013E031C29
:100A50001F2D831203133808B600602D0030831257
:100A60000313B7000130B4003508003C03193F2DD3
:100A700083120313B40DB70D013E031C382D8312EE
:100A80000313090883120313B800B9013808B40529
:100A90000030B7053708B9003408B8003508003C05
:100AA00003195C2D031083120313B91B0314B90C33
:100AB000B80C013E031C522D831203133808B600F4
:100AC000831203133608080000308A150A12042323
:100AD0008A110A1283160313D100033A031D842DD1
:100AE0000330831603135502031D782DE83054029A
:100AF0000318802D83160313D40A0319D50A842DF5
:100B000083160313D401D50101308A150A12042378
:100B10008A110A1283160313D100013A031D9F2D77
:100B2000831603135508540403199B2DFF30D40773
:100B3000031CD5039F2D83160313D401D501023066
:100B40008A150A1204238A110A1283160313D1008C
:100B5000013A031DAF2D83160313D401D501E830EC
:100B6000FD000330FE00831603135408FF005508F0
:100B70008A150A1267228A110A1283160313D200F9
:100B80007F08D100D300FF0000308A150A126223CB
:100B90008A110A12E830FD000330FE0083160313A9
:100BA0005408FF0055088A150A12D4218A110A1226
:100BB00083160313D2007F08D1006430FD0000309B
:100BC000FE005108FF0052088A150A1267228A1196
:100BD0000A1283160313D2007F08D100D300FF004E
:100BE00001308A150A1262238A110A12E830FD00C8
:100BF0000330FE00831603135408FF0055088A15BE
:100C00000A12D4218A110A1283160313D2007F0814
:100C1000D1006430FD000030FE005108FF00520892
:100C20008A150A12D4218A110A1283160313D200DC
:100C30007F08D1000A30FD000030FE005108FF009F
:100C400052088A150A1267228A110A1283160313A0
:100C5000D2007F08D100D300FF0002308A150A12AB
:100C600062238A110A120A30FD000030FE0083164A
:100C700003135408FF0055088A150A12D4218A115B
:100C80000A1283160313D2007F08D100D300FF009D
:100C900003308A150A1262238A110A12080083128D
:100CA0000313BA007F08BB0004303A020318952EE4
:100CB0000630831203138A006630831203133A0747
:100CC000031C652E831203138A0A82006A2E752E76
:100CD000802E8B2E0130FE000030FF0001308A1183
:100CE0000A1200238A110A12952E0130FE000130EB
:100CF000FF0001308A110A1200238A110A12952E70
:100D00000130FE000230FF0001308A110A12002378
:100D10008A110A12952E0130FE000330FF000130C7
:100D20008A110A1200238A110A120330FF0083126B
:100D300003133A088A110A12D2278A110A1283125F
:100D40000313BC007F08BA005D3EBD000030BE004A
:100D50003C0803183C0FBE073D08831203138400B0
:100D60008313831203133E1883173B088312031364
:100D700080000430831203133B020318352F063022
:100D8000831203138A00CD30831203133B07031C25
:100D9000CC2E831203138A0A8200352F042F352F9D
:100DA000D12E831203133A085D3EBB000030BD0014
:100DB0003C0803183C0FBD0701303B07BE00BF01D4
:100DC000BF0D3D08BF073E08831203138400831341
:100DD000831203133F18831701308312031380001B
:100DE000023083120313BB070318BD0A3B088312AA
:100DF000031384008313831203133D1883170130F8
:100E0000831203138000352F831203133A085D3ECB
:100E1000BA003C0803183C0F003EBC0001303A0702
:100E2000BB00BD01BD0D3C08BD073B088312031389
:100E300084008313831203133D1883170030831239
:100E400003138000023083120313BA070318BC0A8D
:100E50003A088312031384008313831203133C188C
:100E60008317003083120313800008002830FE002F
:100E70000B30FF0080308A150A12A1228A110A1253
:100E800083160313A1007F08A0002A30A2000B30B4
:100E9000A300831603132008A4002108A500FF3037
:100EA000A007031CA103250824040319CE2F043036
:100EB0002207A400A501A50D2308A5072408FE000C
:100EC0002508FF0080308A150A12A1228A110A1211
:100ED00083160313A7007F08A6002208FE0023083C
:100EE000FF0080308A150A12A1228A110A12831685
:100EF0000313A900A5007F08A400A8000230220760
:100F0000A400A501A50D2308A5072408FE002508B7
:100F1000FF0080308A150A12A1228A110A12831654
:100F20000313A500AB007F08AA00A40083160313D7
:100F30002608AA002708AB00FF30A607031CA7035A
:100F40002B082A040319C72F2808FE002908FF00D0
:100F500080308A150A12C2228A110A1283160313DC
:100F6000AA00240883120313840083138316031337
:100F7000251883172A08831203138000831603138E
:100F8000A80A0319A90AA40A0319A50A962F06306C
:100F900083160313A2070318A30A492F8A150A12FE
:100FA000E428080083160313C6007F08C700C801A1
:100FB000C901CA010830831603134A020318F72F28
:100FC0000310C80DC90DC61FEE2F0030CC00470816
:100FD000CB00C8074C0803184C0FC907831603132E
:100FE0004608CB0003104B0DC600CA0ADA2F831641
:100FF00003134808FF0049080800003400340800C3
:101000000030FF0000308A150A1238218A150A12B2
:101010000030FF0001308A150A1238218A150A12A1
:101020000030FF0002308A150A1238218A150A1290
:101030000030FF0003308A150A1238218A150A127F
:10104000831603135808CD3E83120313D1000030DA
:101050000318013ED2005108831203138400831346
:101060008312031352188317831203130008831289
:101070000313D300AC3ED10000300318013ED20070
:10108000510883120313840083138312031352182D
:10109000831783120313000883120313D300FF0086
:1010A00003308A150A1221228A150A120130FF0024
:1010B0008316031358088A150A1238218A150A1252
:1010C000831603135808033A031D6828D8017228B1
:1010D00083160313580883120313D100510A831691
:1010E0000313D800080083120313CE007F08CF003B
:1010F0007E08D0000030FF0003308A150A12482312
:101100008A150A12831603133508FF0003308A1567
:101110000A1221228A150A120430831203134E0286
:101120000318CF280830831203138A00A0308312DB
:1011300003134E07031C9F28831203138A0A82009D
:10114000A428AF28BA28C5280030FE000730FF00C9
:1011500001308A110A1200238A150A12CF280030A2
:10116000FE000630FF0001308A110A1200238A15A2
:101170000A12CF280030FE000530FF0001308A112E
:101180000A1200238A150A12CF280030FE0004300C
:10119000FF0001308A110A1200238A150A128312F5
:1011A00003134F08FF004E088A150A1238218A15CA
:1011B0000A12831203135008FF004E088A150A1200
:1011C00062238A150A1208000030FF0000308A11DD
:1011D0000A124F268A150A120030FF0001308A11C8
:1011E0000A124F268A150A120030FF0002308A11B7
:1011F0000A124F268A150A120030FF0000308A15A5
:101200000A12AD238A150A120930FE000030FF00D1
:1012100000308A150A1273208A150A120930FE005E
:101220000030FF0001308A150A1273208A150A1255
:101230000930FE000030FF0002308A150A127320C8
:101240008A150A120930FE000030FF0003308A15AB
:101250000A1273208A150A128A150A12A5238A1502
:101260000A128A150A129D238A150A1236290800C5
:1012700083120313D4007F08D500043054020318EE
:1012800086290930831203138A004F308312031317
:101290005407031C4E29831203138A0A8200532920
:1012A00060296D297A29831203135508FE0007303F
:1012B000FF0001308A110A12BB218A150A12862901
:1012C000831203135508FE000630FF0001308A1117
:1012D0000A12BB218A150A128629831203135508A4
:1012E000FE000530FF0001308A110A12BB218A1569
:1012F0000A128629831203135508FE000430FF00EA
:1013000001308A110A12BB218A150A1208008312C1
:101310000313D600D701043056020318D029093030
:10132000831203138A009D30831203135607031C94
:101330009C29831203138A0A8200A129AD29B929A5
:10134000C5290730FF0001308A110A1245248A1589
:101350000A1283120313D700D0290630FF00013090
:101360008A110A1245248A150A1283120313D70020
:10137000D0290530FF0001308A110A1245248A1550
:101380000A1283120313D700D0290430FF00013062
:101390008A110A1245248A150A1283120313D700F0
:1013A000831203135708080083160313C0007F0835
:1013B000BF007E08C2007D08C100C301C4018316BE
:1013C000031342088039031D0130C5004508031D81
:1013D000002A0310C10DC20D42084002031DF2296C
:1013E00041083F020318FA29031083160313C20CA5
:1013F000C10C002A83160313C40A4408C300DF2962
:101400008316031342084002031D082A41083F02C5
:10141000031C122A831603134108BF024208031C4F
:10142000420FC002031083160313C20CC10C430801
:10143000C400C3034408031D002A3F08FF004008FE
:10144000080083120313AD007F08AE00AF01003027
:1014500083120313B1000130B0002F08003C0319C0
:10146000382A83120313B00DB10D013E031C312A3B
:1014700083120313B3012E08B200B0050030B1058A
:101480003108B3003008B2002F08003C0319522A7B
:10149000031083120313B31B0314B30CB20C013EED
:1014A000031C482A831203133208B000FE002F08E1
:1014B000FF002D088A110A12BB218A150A12831215
:1014C0000313AF0A08302F02031C272A08008316D3
:1014D0000313B8007F08B7007E08BA007D08B90082
:1014E000BB01BC011030BD008316031338088039DE
:1014F000031D0130BE000310B70DB80D0310BB0D66
:10150000BC0D3E08031D3B143A083C02031D8A2A09
:1015100039083B02031C952A831603133908BB02C2
:101520003A08031C3A0FBC023714831603133D0319
:10153000BE00BD003E08031D742A3708FF003808AE
:101540000800003A0319A92A803A0319B32AFF01B7
:1015500000347E08840083137F1883170008FF007F
:10156000840A000808008A150A12D022FD00FE0F26
:10157000FF03FF0A8A150A12D022FC007D08FF0033
:101580007C080800003A0319C92A803A0319D02AB6
:1015900000347E08840083137F1883170008080036
:1015A0007F088A007E088200080083120313E90086
:1015B000EA01EB01831203136908EC00ED0100302E
:1015C0006B02031DE52A6C086A020318032B7830AE
:1015D00083120313EC00ED01FF30831203136C0739
:1015E000EE00FF30EF006D0803186D0FEF076E0877
:1015F000EC006F08ED006F086E04031DEC2AEA0A88
:101600000319EB0ADA2A080083120313CC00033013
:10161000FF004C088A110A12D2278A150A12831277
:101620000313CD007F08CC005D3ECC004D080318AD
:101630004D0F003ECD004C0883120313840083132A
:10164000831203134D188317831203130008080035
:1016500005340034B3340B34CD3400340434003456
:1016600092340B34AC3400340B340034B7340B34C4
:10167000D834003401340034FD340734D634003417
:1016800002340034B8340B34DA340034013400341A
:1016900083120313A5007F08A600A701831203137A
:1016A0002608FE002708FF0025088A110A120023D9
:1016B0008A150A1283120313A70A08302702031C93
:1016C0004E2B080083120313D8007F08D900580856
:1016D000CD3ED80000300318013EDA0058088312CE
:1016E000031384008313831203135A1883175908B2
:1016F000831203138000080083120313DB00CD3E26
:10170000DB0000300318013EDC005B08831203138A
:1017100084008313831203135C188317831203134B
:10172000000808003F3406345B344F3466346D34AF
:101730007D3407347F346F340034831203138B16E7
:101740008B17831603138112080083160313811667
:101750008111011481140115080083160313D500AB
:101760007F08D40008000934003400340034003409
:02177000003443
:02400E00323F3F
:00000001FF
